:020000040800F2
:10000000000002204188020815DA000819DA000809
:100010001DDA000821DA000825DA000800000000D7
:10002000000000000000000000000000514801082E
:1000300029DA000800000000E1480108C142010877
:100040009188020891880208918802089188020824
:100050009188020891880208918802089188020814
:100060009188020891880208918802082DDA000818
:100070009188020839DA00089188020845DA0008F8
:10008000918802089188020851DA00085DDA0008B8
:1000900069DA000885DA000891DA00089188020818
:1000A000918802089DDA0008A9DA00089188020800
:1000B000B5DA0008C1DA00089188020891880208C0
:1000C00091880208918802089188020891880208A4
:1000D0009188020891880208918802089188020894
:1000E0009188020891880208918802089188020884
:1000F000CDDA0008D9DA000891880208E5DA0008AC
:10010000918802089188020891880208F1DA0008B3
:10011000FDDA000809DB000815DB000821DB000818
:100120002DDB000891880208918802089188020856
:1001300091880208000000000000000039DB000880
:1001400045DB000851DB00085DDB000869DB0008C7
:100150009188020891880208918802089188020813
:100160009188020891880208918802089188020803
:100170009188020891880208000000000000000039
:08018000918802089188020831
:1001900010B5054C237833B9044B13B10448AFF3C1
:1001A00000800123237010BD18090020000000000A
:1001B000CC31030808B5034B1BB103490348AFF327
:1001C000008008BD000000001C090020CC3103089D
:1001D000312970B584463CD828290AD9A1F12900D3
:1001E000082834D8DFE800F01A191833181A1A4111
:1001F00019000A290ED9A1F10B052F48EDB20124EF
:10020000AC40204088BB14F47F1F07D12B4820400E
:1002100010B970BD042916D8CAB1C3B1DCE90540D4
:10022000844214DADCF8105004EB840E05EB8E00E7
:1002300001340026C0E90166CCF8144005F82E1000
:10024000C0E9032370BDA1F1090001280DD90020E8
:1002500070BD4F290CD83329F9D9A1F134051848BC
:10026000EDB20124AC402040F0B1002AD6D1EEE737
:10027000A1F152000928D1D801A454F820F000BF00
:100280006B0200081B0200081B020008190200088C
:100290006B0200086B0200081D0200086B020008D8
:1002A0006B0200086B020008064820400028B3D10A
:1002B0004E29B3D070BD00BFFE1F802F010040004B
:1002C0000711C701F82E000AF0B5C26811786E292F
:1002D000864625D03039CBB2092B2BD80026164DB7
:1002E00000206FF0004402E0B0EBD30F15DC0132C8
:1002F000CEF80C201378303B5FFA83FC00EB8000D3
:1003000001EB4000BCF1090F1946A4EB0303A5FB68
:100310000373E9D906B14042F0BD4FF0FF30F0BDA4
:10032000531CC36051783039CAB2092A02D81A4620
:100330000126D4E70020F0BDCDCCCCCC10B50446CE
:1003400029B9C3681A786AB15A1CC2601978682939
:100350000CD0762906D12046FFF7B6FFE3681A785D
:100360005F2A01D0002010BD0133E3602046FFF773
:10037000ABFFE3681A785F2AF4D10133E360012010
:1003800010BD00BFC3681A785F2A01D001207047F2
:1003900010B55A1CC2605A785F2A044604D0FFF791
:1003A00093FFC043C00F10BD0233C360FFF78CFF43
:1003B000002807DB092801DC012010BDE3681A785A
:1003C0005F2A01D0002010BD0133E360F4E700BFD5
:1003D000002900F0918038B505460C46A268012A34
:1003E00035DCD5F81C01B0F5806F30DC23780132A4
:1003F000412BA2602CD8222B18D8013BDAB2212A3B
:1004000025D8212B23D8DFE803F051515170222247
:100410001F1F515151515151515151515151515130
:10042000512251515151515151515151A3F1230C6C
:1004300032495FFA8CFC012202FA0CF21140A9BB8E
:10044000920748D1332B02D12469002CC6D138BD84
:10045000443BDAB2112AFAD8112BF8D801A252F88B
:1004600023F000BFAD040008CF040008CF0400084B
:10047000CF040008CF0400084F040008AD040008B2
:10048000AD040008AD040008AD040008AD04000888
:10049000AD040008AD040008AD0400084F040008D6
:1004A0004F0400084F040008CF040008E168013041
:1004B000C5F81C012846FFF78BFF21692846FFF786
:1004C00087FFD5F81C31013BC5F81C3138BDE46805
:1004D000002C83D1BBE7E1680B78052BE7D1D5F879
:1004E00038310133C5F83831E1E7D5F84431E168F6
:1004F0000133C5F84431DAE7704700BFEC7DFE7F79
:1005000020B909E039B10069013930B103782F2BE6
:10051000F8D000207047C068704770472DE9F0415F
:1005200014465268A568D4F80C804B1C1344AB42A7
:1005300082B00E46074614D8B8F1000F0ED163689A
:1005400020683246184439462DF08EF9D4E900323D
:10055000334403F8028063683344636002B0BDE84B
:10056000F081B8F1000FF9D17DB16D00AB42FCD83C
:10057000206829462BF0C0FA60B1D4F80C802060C6
:10058000A560B8F1000FDAD0E8E7022B4FF00205C2
:10059000EBD8EDE7019020682BF060F8019B012279
:1005A000C4E90033C4E90232D8E700BF03784B2B1B
:1005B00017D00ED8442B16D14078A0F17703012B29
:1005C0000FD900F0DF00A0F14F00B0FA80F0400931
:1005D0007047562B05D0A3F17200B0FA80F04009A5
:1005E0007047012070470020704700BFD0F80031ED
:1005F000FF2B70B504460D4606D05A1CC4F80021E6
:10060000E55484F8045170BD0026194680F8FF6057
:10061000D0E942329847D4F82811012233461144D8
:10062000C4F82811C4F80021E55484F8045170BDC1
:10063000D0F810318BB15A68CB681069002B0BDBF6
:1006400020B906E03BB10069013B10B102782F2AC6
:10065000F8D000207047C06870470123C0F81831F7
:10066000F7E700BF002941D038B505460C4623788E
:10067000332B1DD8332B24D8DFE803F02B2323237F
:10068000232D2B282823232323232323232323231E
:10069000232323232B232323232323232323232322
:1006A0002323232B232323232323232323232B2805
:1006B000423BDBB21A2B04D80D4A22FA03F3DB07C4
:1006C00007D4E1682846FFF7CDFF18B92469002C4C
:1006D000CDD1002038BD21462846FFF7A9FF0028CC
:1006E000F7D003782F2BF5D00020F3E700207047D8
:1006F000E30C00042DE9F047044608460D4608F0D7
:1007000067FA68B3013DD4F800112F184FF00009C3
:100710004FF0010809E00B465546591CAF42C4F89A
:100720000011E65484F804611AD0FF296E7805F1AF
:10073000010AF0D1D4E9423284F8FF90204698476C
:10074000D4F82821C4F8008101231A44BA45C4F81A
:100750002821267084F8046102D015F8026FDCE7C6
:10076000BDE8F08738B5C2681378542B24D1531CE8
:10077000C36052785F2A044620D06E2A1CD0FFF74F
:10078000A3FD411C18D4E3681A785F2A14D1D4E978
:10079000052001338242E3600EDA236902EB820C0A
:1007A00003EB8C0001320025C0E90155626105228E
:1007B00003F82C20C16038BD002038BD0021E6E7D9
:1007C0002DE9F04788B00A4604461D4901A82CF0DF
:1007D00099FD01A808F0FCF970B301AED4F800113E
:1007E00006EB000A4FF000094FF0010808E02E4622
:1007F000591CB245C4F80011E75484F804711BD0A9
:100800003546FF2915F8017B0B46F0D1D4E9423279
:1008100084F8FF9020469847D4F8282127700123B8
:100820001A44554584F80471C4F82821C4F800819D
:1008300002D02F780236DBE708B0BDE8F08700BFB2
:10084000E03E03082DE9F0410446FFF73DFD051E9B
:1008500044DDE66863689B1B9D423BDCA26873191C
:100860005207E36004D5725D242A04BF0133E360BC
:10087000092DD4E905781FDD2749082230462CF0E0
:10088000B3FE30B9337A2E2B2BD05F2B29D0242BFB
:1008900027D047451EDA206907EB870300EB83006A
:1008A00001370023C0E9013367610023C0E9013348
:1008B000C0E9036503700EE047450BDA206907EBDA
:1008C000870300EB830001370023C0E90133676130
:1008D000002EEAD10020A062BDE8F0810020BDE832
:1008E000F081737A4E2BD4D1E36A16335B1B4745F4
:1008F000E362EFDA2169094A07EB870085000023EC
:1009000001EB800001376761C0E901334B551523C6
:10091000C0E90323DFE700BFC8480308D448030841
:100920002DE9F041C3681A78532A26D15A1CC260B7
:100930000446587848B39A1CE26058785F2846D03D
:10094000A0F13003DAB2092A1BD8002205E0E560E5
:1009500008785F2831D0A0F13003D9B2092902EB21
:10096000C20300EB83031ED8303B9A4205D8E168EE
:1009700008781A464D1C0028E9D100252846BDE814
:10098000F081A0F14102192ADFD9A3681B0720D406
:1009900009BB434B03F1C4051A78824223D01C33B0
:1009A000AB42F9D1E9E7A0F14103192BE5D802EBFD
:1009B000C20300EB8303373BD7E70133226A9A4235
:1009C000DBD9E26952F823502846BDE8F0810023C4
:1009D000F4E70121DDE7E3681978433901298CBF89
:1009E00000210121D5E75E69D4E90520AEB182423C
:1009F000D3F8188052DA276902EB820C07EB8C05DA
:100A00004FF0000EC5E901EE01324FF0180E6261A1
:100A100007F82CE0C5E90368A562002939D0D3E9BD
:100A20000371E36A82420B44E36235DA236902EB25
:100A3000820003EB800501320026C5E90166626190
:100A4000182203F82020C5E90371E3681A78422AC6
:100A500094D1A66A0133E3602046FFF7F3FE2A46ED
:100A600003464D212046FFF7B3FBE3681A78422A7C
:100A70000546EFD0A66200283FF47FAFD4E90832E4
:100A80009342BFF67AAFE1695A1C41F82300226213
:100A900074E7D3E90171C4E70025D6E70025BBE779
:100AA00078320308F8B5C3681A78572A28D1044663
:100AB0000E4607E0E569E36845F8220021621A78EE
:100AC000572A1DD15A1CE2605A78502A4FF053051C
:100AD00002D10233E360542520463768FFF7B2FEA7
:100AE0003A46034629462046FFF772FB306030B194
:100AF000D4E908239A4202F10101DBDB0020F8BDB2
:100B00000120F8BD2DE9F043C16885B004460846D0
:100B1000FFF74CFDF0B90B78552B4DD8402B78D909
:100B2000413B142B75D8DFE813F04B0174003701FB
:100B3000F70074004501A50074007400740074008F
:100B400074008A0174009700890074007B007400AF
:100B5000CB00B30000226946204601F0C5F90546E6
:100B6000002800F09C81E3681B78462B204620D0AB
:100B7000FFF7C8FF2860002800F0918103781F3B31
:100B8000012B05D8009AC368C2602A6800922B60C6
:100B90000098002800F08381D4E90832934280F263
:100BA0007E81E1695A1C41F82300226205B0BDE84C
:100BB000F08300F0F1FBDDE7A3F161020546D0B25E
:100BC000192826D8A84E012383401E40002E40F04D
:100BD000C98214281DD10131E1602046FFF732FEA1
:100BE0003346024628212046FFF7F2FA05460090D8
:100BF000002D00F05481D4E90832934280F24F81F5
:100C0000E169009841F823505A1C226205B0BDE802
:100C1000F0830121204605B0BDE8F04301F00EBA93
:100C20000131E1602046FFF76DFF002302462321DA
:100C30002046FFF7CDFA05460090D9E70131E16083
:100C40002046FFF75FFF0023024622212046FFF7E0
:100C5000BFFA05460090CBE70131E1602046FFF77F
:100C600051FF0023024624212046FFF7B1FA054632
:100C70000090BDE70131E1602046FFF743FF00230C
:100C8000024626212046FFF7A3FA05460090AFE76B
:100C90000131E1602046FFF7D5FDE36800901A7846
:100CA000492A054600F07E822046FFF72BFF2B469F
:100CB000024621212046FFF78BFA0546009097E770
:100CC0002046FFF74FFDE66800903378492B054634
:100CD0008ED1636B002B40F09B82002800F0DF80F8
:100CE000D4E908218A4280F2DA80E16941F82200E1
:100CF000013222623278493A012A05D80136E6608B
:100D0000204601F099FE03462A4604212046FFF7BB
:100D10005FFA054600906BE74B1CE3604B78002BB5
:100D200000F0BD808B1CE3604B78463B302B00F21B
:100D3000B680DFE813F0B600B400B400B400B4002D
:100D4000B400B400B400B400B400B400B400B40003
:100D5000B4009B00B400B400B400B400B400B4000C
:100D6000B400B400B400B400B400B400C501B400D1
:100D7000F500AD0195017D01B4006501F301B400FA
:100D8000B400B400B400DB01B4000B02B400B40042
:100D90004D019B0035010A010131E1602046FFF75A
:100DA000B1FE0023024625212046FFF711FA054631
:100DB00000901DE7204600F0EFFA0546009017E787
:100DC000481CE0604A785F2A00F0EA81303A092A3C
:100DD00000F2F58103461D460133E3601A78303A8C
:100DE000092AF8D9A5EB010ED4E905218A4256DA81
:100DF000D4F8108002EB820C002108EB8C07013242
:100E00008E45C7E901114FEA8C0C626147DDC7E9E5
:100E1000011108F80C10C7E9030E6A7818465F2A1A
:100E20003DD10130E0602046FFF76CFE3A460346B4
:100E30002A212046FFF7CCF905460090D8E601317B
:100E4000E1602046FFF75EFE054640B32046FFF70F
:100E500059FE034618B32A462B212046FFF7B8F95E
:100E600005460090C4E600BFFF7BEC030123256B21
:100E70002363204600F08CFD2563024600234421B5
:100E80002046FFF7A5F90546009040B1E3681A78BF
:100E90002AB15A1CE2601B78452B3FF4ACAE00200F
:100EA00084E62046FFF710FAE3681D78622D0246BB
:100EB00000F0D281782D02D05F2DF0D10025D4E949
:100EC000051081420FFA82FE03F1010380F2ED81E9
:100ED0002769142001FB00F03E1801314FF0000C8F
:100EE000C6E901CC61614FF05C0CBC4907F800C059
:100EF000F160A6F810E0BA49B57401A8E360009665
:100F00002CF000FA01A807F063FEF368E26A5B6860
:100F10001344002D18BF013303440098E36245E6F3
:100F2000D4E905329342BADA2269AE4903EB830071
:100F300085000133636102EB80000023C0E90133C7
:100F400053550E23C0E9031330E68B785F2B00F076
:100F50009E81D4E905329342A1DA226903EB830131
:100F600002EB810501330020C5E9010063614323E1
:100F700002F821302046FFF7A7F9E860E3681A7805
:100F80005F2A8CD10133E3602046FFF7BBFD2A4680
:100F900003462D212046FFF71BF90546009027E662
:100FA000D4E90532934280F28581226903EB830103
:100FB00002EB810001330025C0E90155636127235D
:100FC00002F82130E36A884AC2600733E362EDE544
:100FD000D4E90532934280F26D81226903EB8301EB
:100FE00002EB810001330025C0E90155636127232D
:100FF00002F82130E36A7D4AC2600833E362D5E536
:10100000D4E90532934280F25581226903EB8301D2
:1010100002EB810001330025C0E9015563612723FC
:1010200002F82130E36A724AC2600433E362BDE52C
:10103000D4E90532934280F23D81226903EB8301BA
:1010400002EB810001330025C0E9015563612723CC
:1010500002F82130E36A674AC2600933E362A5E51A
:10106000D4E90532934280F22581226903EB8301A2
:1010700002EB810001330025C0E90155636127239C
:1010800002F82130E36A5C4AC2600A33E3628DE50C
:10109000D4E90532934280F20D81226903EB83018A
:1010A00002EB810001330025C0E90155636127236C
:1010B00002F82130E36A514AC2600933E36275E500
:1010C000D4E905329342BFF6EAAE22694C4903EBFC
:1010D000830085000133636102EB80000023C0E9D7
:1010E000013353550423C0E903135FE5D4E9053206
:1010F000934280F2DF80226903EB830102EB8100DF
:1011000001330025C0E901556361272302F821302E
:10111000E36A3C4AC2601133E36247E5D4E9053231
:10112000934280F2C780226903EB830102EB8100C6
:1011300001330025C0E901556361272302F82130FE
:10114000E36A314AC2600833E3622FE52046FFF7C5
:10115000D9FC002302464C212046FFF739F805460A
:10116000009045E5294802EB820300EB8302D4E9B5
:101170000530834280F2A180266903EB830C06EBE5
:101180008C000133C0E901556361272306F82C3038
:10119000C260E36A526801311344E160E36205E52D
:1011A00000273EE60133E360204601F045FC2A4675
:1011B000034604212046FFF70BF8054674E501239A
:1011C000256B2363204600F0E3FB256307460028D8
:1011D0003FF465AEE068027821E600BFE43503081D
:1011E000E03E0308F448030894350308A8350308D3
:1011F00080350308443503086C3503085835030867
:10120000EC480308D0350308BC3503083C33030819
:10121000731CE3602046D4F81490D4F82080E76A69
:1012200001F00AFCE3681B78492B06D0E660C4F89D
:101230001490C4F82080E762DAE4002D3FF42FAE6A
:10124000D4E908239A42BFF62AAEE16941F8225058
:1012500001320346226257E510287FF420AED4E91C
:10126000052101338A42E36024DA2069142302FB5A
:1012700003F3C11801320025C1E90155626127223B
:10128000C254E36A0E4A0091CA600F3345E6033147
:101290000123266BE1602363204600F079FB26637F
:1012A000054600287FF46AAEF9E50649E36001A827
:1012B0002CF028F80023DB68FFDEEB68FFDE00BFC0
:1012C000F8350308E03E030830B5044683B0E26811
:1012D0000023019313784F2B01AD204617D01FD860
:1012E0002E2B17D0452B15D0A3B1FFF70BFC0246D0
:1012F00000232E2120463AB3FEF76AFF286018B378
:10130000E26813784F2B00F110052046E7D153789F
:10131000452BEAD10198B8B103693BB103B030BDA8
:10132000522BE2D15378452BDFD1F3E7C268117815
:101330002729F3D1D268117C0929EFD1E16A5268DB
:10134000891AE162C360E9E7002003B030BD00BF45
:1013500070B5C3681A784A2A05461AD081B1284662
:10136000FFF7D0FB044690B12846FFF7ADFF0346D8
:1013700068B1224628462921BDE87040FEF728BF03
:1013800028460C46FFF7A0FF03460028F1D10020B5
:1013900070BD0133C360E2E770B50446806810F4A5
:1013A00080200BD1E26BB2F5006F06D8511CE368C8
:1013B000E1631978462907D0E26370BDE3681A78C3
:1013C000462A01D0002070BD5A1CE2605A78592A82
:1013D00004BF0233E36001212046FFF7B9FFE5684F
:1013E0002B78522B1AD04F2B0AD0452BA36806BF5F
:1013F0000135E56000205B03DFD4E26B013ADBE7F7
:10140000E36A202103336E1CE36202460023E66098
:101410002046FEF7DDFE6B783546E6E7E36A1F21DE
:101420000233F0E7C3681A78542A42D170B55A786B
:101430006E3A04460D460B2A11D8DFE802F01C1064
:10144000061010102A101010101202332946C36023
:10145000FFF7E8FF5B21024638B901232B6000202B
:1014600070BD0233C3605821002220460023BDE82E
:101470007040FEF7ADBE0233C360FFF743FB024688
:101480000028EAD020465921BDE870400023FEF72D
:101490009FBE0233C360294600F00EF802460028C2
:1014A000DBD0E36819784529D7D10133E3605A21AD
:1014B000DBE70020704700BF70B582B0002305460F
:1014C0000E46019301AC02E0236003F110043146A3
:1014D0002846FFF7A7FF03460028F5D1019A32B14D
:1014E0005721284602B0BDE87040FEF771BE02B039
:1014F00070BD00BFF8B5C3681F780646A7B35A1C75
:10150000C26093F801E01F78BEF1000F2ED1384D74
:10151000482100228B1A03EBD37302EB63031801FB
:1015200005EB031C2C582078B84206D094BF5A1CF7
:1015300019468A42EED10020F8BD60787045F5D199
:10154000D6E905329342F6DA326903EB830102EB06
:10155000810001330024C0E901447361322302F8A1
:101560002130C0F80CC0F8BDBE46D0E79A1CC2605E
:10157000762F93F801E01FD1AEF13004E3B2092BCE
:10158000C5D8FFF75FF9D6E905318B420246D2DABA
:10159000376903EB830107EB810001330025C0E9C4
:1015A000015589007361002AC5D03323C0E9015574
:1015B0007B54C0E90342F8BD632FA8D1BEF1760F7A
:1015C000A5D1D0E90C34B3FA83F35B094363FFF789
:1015D00099FA736B024633B1002335213046FEF78A
:1015E000F7FD7463F8BD34213046FEF7F1FDF8E7EE
:1015F0000C3603082DE9F04184B00E4601A90446DB
:101600000192FFF74FFA002800F0EC80E2681378AF
:10161000A3F13001092979D9A3F16101192929D848
:101620006F2B276B00F0A1802046FFF763FF276335
:101630000546002800F0C8800378322B6AD1C268C2
:10164000E36A9168126807330B44E36213786C2BEA
:1016500060D15378692B5DD19378002B5AD1204605
:10166000FFF7F0F82A46034637212046FEF7B0FD83
:1016700005464FE0442B00F08180A3F1430101298E
:1016800040F28D804C2B00F0A180552B40F0AA80B9
:1016900053786C2B00F0EF80742B40F0A380531C28
:1016A000E3605378019D742B40F08E80931CE360BF
:1016B00092785F2A00F061816E2A00F062812046F4
:1016C000FEF702FE01307FD4E3681A785F2A7BD1EF
:1016D00001336269E360A3699A4275DA236902EB18
:1016E000820103EB810501320027C5E901776261C0
:1016F000492203F82120D4E908329342E86063DAF2
:10170000E26942F823500133236203E02046FFF7E9
:1017100099F80546019B2BB12A4655212046FEF734
:1017200057FD0546E3681A78422A0BD036B12B469E
:10173000324601212046FEF74BFD0546284604B0FF
:10174000BDE8F081A76A0133E3602046FFF77AF82D
:101750002A4603464D212046FEF73AFDE3681A78F3
:10176000422A0546EFD0A762E0E753786E2B7FF45C
:101770005BAF02320023E260236355E75378432BCB
:101780005BD0A16A19B1087890B1182810D0303B0D
:10179000052B19D8DFE803F045284B18484EA16AFD
:1017A000002900F0B1800B7813B1182B40F0AC8009
:1017B000E36A08690344E3621378432B00F0A480D2
:1017C000442B08BF5378E2D00025A3E70132E26042
:1017D0002046FFF737F8054620B12046FEF7D2FD38
:1017E000002897D10025A9E74FF0020C0232E260F1
:1017F000D4E905329342E7DA276903EB830207EB6A
:10180000820501330020C5E90100920063610029CF
:10181000DAD00823C5E90100BB5485F80CC0296162
:1018200078E74FF0010CE1E74FF0040CDEE74FF0F2
:10183000030CDBE74FF0050CD8E70232E26000272B
:101840002046FEF7FFFF0023024652212046FEF706
:10185000BFFCB8460746B8F1000F0AD0C8F8100020
:10186000002FB1D0E3681A78452AE9D10133E3604B
:1018700050E70546F4E7531CE36053786C2BA3D183
:1018800002320023E26003A920460393FFF714FE0F
:10189000DDF80C800746B8F1000F95D12046FFF720
:1018A00013FD002890D0002F69D03861E2681378CA
:1018B000452B89D1531CE36052785F2A0DD06E2AE4
:1018C00082D02046FEF700FD10F101083FF57CAF05
:1018D000E3681A785F2A7FF477AF0133E360D4E9D5
:1018E00005329342BFF670AF226903EB830102EB2E
:1018F000810501330020C5E901006361472302F837
:101900002130C5E9037805E75378492B24D0A3F1AA
:10191000310004283FF658AF303B0232DFB2E260BC
:10192000D4E905329342BFF64FAFD4F810C003EBB1
:1019300083020CEB820501330020C5E9010092000F
:10194000636100293FF440AF0723C5E901000CF8AB
:1019500002302F732961DDE6531CE3609378A3F115
:10196000310104293FF630AF0332303BE2602046BC
:10197000DFB2FFF7C7F8A16AD2E70020A8E6074662
:1019800094E7002D3FF4D2AE2B460025C4E600BFFD
:10199000C26813784C2B00F0DA80542B00F0D98009
:1019A000732B2DE9F041044624D0662B5AD0A3F1C5
:1019B0003001092947D96F2B40D0692B40F038827C
:1019C00053786C2B1CD10232C2600025117800299B
:1019D00000F08B805378002B00F087804521204653
:1019E00000F048FA2A46034631212046BDE8F0417E
:1019F000FEF7EEBB5378722B79D0702B00F0438149
:101A00002046FFF777FD054600286ED00378322B7D
:101A100057D0332B00F09F80342B66D1E3681A78BF
:101A20005F2A00F0E9812046FFF7B2FF03462A460D
:101A300020463721BDE8F041FEF7CABB53786E2B34
:101A4000DED10232C260002211462046FFF7D2FDED
:101A50000546002849D0E3681A78492A63D0284609
:101A6000BDE8F0815378702BCAD1931CC360937882
:101A7000542B00F004815F2B7DD06E2B35D0FEF708
:101A800023FC411C31D4E3681A785F2A2DD16FF012
:101A9000004201339142E36027D00230D4E905329D
:101AA000934222DA226903EB830102EB81050133C1
:101AB0000026C5E901666361062302F82130E8606B
:101AC000CDE7C168E36A8A680E68023A1344E362AC
:101AD0003378732B34D17278742A31D1B2787ABBCF
:101AE0002046FFF70FF80346A1E70025B7E7931C50
:101AF000816BC360937849B1552B00F24F81422B23
:101B000000F23481303B092B40F238812046FEF749
:101B1000F9FF014600222046FFF76CFDE3681A78C2
:101B2000492A05469BD10133E360204600F084FF3B
:101B30002A46034604212046BDE8F041FEF748BB93
:101B4000CF68032FD1D8DFE807F00E1A613800F014
:101B5000BBBEFEF707BEC368012B3FF464AF032B87
:101B6000C3D0002BC1D12A4620460023BDE8F04156
:101B70003621FEF72DBB0332C26001208EE732789A
:101B8000702A00F0E6806D2A00F0E3800027732BB6
:101B900070D17378502B6DD1B378002B6AD1204669
:101BA00000F04AFF0346002F3FF441AF1A463921A7
:101BB0002046FEF70DFB034639E7712B6FD1727893
:101BC000752A6CD1B278002A69D12046FFF7E0FE71
:101BD00006462046FFF7DCFE07462046FFF7D8FE04
:101BE0000346002881D03A463C212046FEF7F0FA11
:101BF000324603463B212046FEF7EAFA2A460346D0
:101C00003A212046BDE8F041FEF7E2BA7178327819
:101C1000632900F0C880662A00F0E980642B40F058
:101C2000DD807378692B40F0D980B278002A40F0CB
:101C3000D58011462046FFF7DDFC07463378632B3D
:101C40005FD172786C2A5CD1B278002A59D14521D3
:101C5000204600F00FF9064633463A463921204621
:101C6000FEF7B6FA2A46034638212046BDE8F04181
:101C7000FEF7AEBA2046FFF78BFE034693E703322A
:101C8000C26000200AE70232C260FFF781FE002333
:101C900002464C212046BDE8F041FEF799BA642B7C
:101CA00005D17378582B02D1B378002B8DD03378BF
:101CB000662B00F0A9806E2B7FF417AF7378772B1B
:101CC00002D0612B7FF411AF5F21204600F0D2F8E3
:101CD00006462046FEF716FFE3681A78452A0746AF
:101CE00000F0A280702A00F09380692A7FF4FDAE94
:101CF0005B786C2B7FF4F9AE2046FFF749FE034674
:101D000071E7642B5DD17278742A5AD1B278002AB7
:101D100057D1E3681A78672A65D0732A02D15B78B5
:101D2000722B56D0002211462046FFF763FCE36871
:101D30001A78492A06468FD10133E360204600F025
:101D40007BFE3246034604212046FEF741FA064652
:101D500082E7717891427FF419AFE26811785F29C8
:101D60007FF415AF0132E26033780FE7404A433B1E
:101D7000DBB222FA03F3DB077FF5C8AE4FF0FF3387
:101D8000A3630021204600F089FEE3681A78452A03
:101D900001467FF4BFAE0133E360BBE6613B192B24
:101DA0003FF6B4AEEAE7A2F17201012904D9A2F12B
:101DB000630101293FF62FAF2046FEF7A3FE074639
:101DC0003CE7702B05D17378742B02D1B378002BCC
:101DD0009FD02046FFF7DCFD06463DE72046FFF793
:101DE000D7FD07462AE75B78732B9BD1F1E72046A6
:101DF000FFF780FB074621E70133E36045212046DA
:101E000000F038F8034612E62046FFF773FBDFE6E2
:101E10005A78692A7FF469AE0233E360452120468F
:101E200000F028F80346DEE60133E3600023DAE63B
:101E3000742B12D0752B7FF4E3AD0132C260FEF734
:101E400001FD0546204600F0F7FD2A4603463F21E6
:101E50002046BDE8F041FEF7BBB953786C2B7FF408
:101E6000CFAD0232C260FEF74DFEE2680546ADE539
:101E7000010204002DE9F041C2680E46117882B0DB
:101E80000023B1420446019324D001AD012709E0AB
:101E9000FEF79EF9286000F1100588B1E3681A7812
:101EA000B24211D0D4F8308027632046FFF770FD8E
:101EB000024600232E212046C4F83080002AE7D1B4
:101EC000002002B0BDE8F08101980133E36002B068
:101ED000BDE8F0810132C2602E211A4602B0BDE891
:101EE000F041FEF775B900BF2DE9F04F914609F0BA
:101EF0000103C268002B0F4683B01178044615BF5A
:101F00004FF01E0A4FF01B0A4FF01D084FF01A0841
:101F100014BF1C2619263D464FF0010B1BE0562925
:101F200032D04B2936D053784BB3931CE3605378AF
:101F3000782B35D06F2B52D1E36A0933E3625021FD
:101F4000002300222046FEF743F92860B8B1E2687A
:101F5000117800F10C051046FEF728FB30B3531C36
:101F60007229E360DBD1E36A0933E362314600237F
:101F700000222046FEF72CF928600028E7D1002532
:101F8000284603B0BDE8F08FE36A0933E3624146B7
:101F90000023D6E7E36A0633E36251460023D0E725
:101FA000E36A1133E3624E210023CAE7B9F1000F5F
:101FB000E6D14629E4D1BD42E2D01D201E211C22DB
:101FC00007E01B2B37D0192B00D13A700C37BD42DC
:101FD000D6D03F683B781A2BF3D13870F6E74F2BF9
:101FE00016D1E36A0933E3622046236BC4F830B0AC
:101FF0000193FFF7CDFC019B236303460028BED06D
:10200000E26811784529BAD10132E260502198E79F
:10201000772BB4D1E36A0633E3622046FFF754F925
:1020200003460028ABD0E26811784529A7D10132D8
:10203000E260512185E73970C8E700BFF0B5C2689A
:1020400013784E3B85B004460D460C2B08D8DFE8CC
:1020500003F064070707072D072307070707850015
:102060000022164631462046FFF7C4FAE368197885
:102070004929024631D065B1002A00F09C80D4E99C
:1020800008318B4280F29780E069591C40F8232088
:102090002162104605B0F0BD00221146FFF7AAFAF2
:1020A0000246002DE8D1104605B0F0BD5378742BE0
:1020B00000F08880002600212046FEF731FC024611
:1020C000002878D00378533B012BCBD9002E72D156
:1020D000E36819784929DCD10FE000286BD0D4E9F6
:1020E0000810814267DAE06940F82120013121625D
:1020F00019784939012900F2EA800133E36020466A
:10210000019200F099FC019A034604212046FEF753
:102110005FF80246002DBCD0AEE70132C26003A9D1
:102120000122FFF7E1FE0646002844D0E3681A7852
:10213000522A00F0CE804F2A65D00121204600F0BF
:10214000ADFC3060002836D0E3681A78452A32D1D9
:102150000133039AE360002D8ED19AE7531CC360CC
:102160005378472B01D0542B27D1204600F05CF93F
:10217000064606B3E3681A78452A1CD15A1CE26069
:102180005A78732A00F0AB80642A55D0002120468B
:10219000FFF754FF0346002800F09F800278472A8B
:1021A00000F08280492A7FD001902046FEF7EAF8AD
:1021B000019B002878D100226BE7002100F0B4F8E1
:1021C0000646D6E7D0E90531901C8B42E06080F2EC
:1021D000A380216903EB8306B0000133636101EB47
:1021E00086060023C6E901330B544D4BF3600323ED
:1021F0003361E36A0333E3629378532B18BF002201
:102200007FF430AF57E7E26A202103320133E36005
:102210000023E26220461A46FDF7DAFF0121074655
:10222000204600F03BFC30600028C4D0002F8BD04B
:10223000039BFB60039787E79A1CE2609B785F2B08
:102240006CD06E2BB7D02046FEF73EF8471CB2D4B8
:10225000E26813785F2BAED101320021E2602046A4
:10226000FFF7ECFE014658B10378472B08D0492B05
:1022700006D001902046FEF785F8019900289AD0F3
:10228000D4E905239A4228DA206902EB820C00EB9C
:102290008C0301324FF0000EC3E901EE6261482267
:1022A00000F82C20C3E903173278032A05D13269DC
:1022B0001178292904BF0021D1603246022120462D
:1022C000FDF786FF0246002D7FF4D6AEE1E600233F
:1022D0001BE7E26A1F21023298E70023E4E702339A
:1022E000E3602046FEF74EF800283FF464AFD4E9DF
:1022F00005239A42F1DA216902EB82039800013248
:10230000626101EB83030022C3E901220A54054AFA
:10231000DA600E221A61C7E700266AE700279BE70A
:10232000144903080449030870B50E460021054608
:10233000FFF784FE002849D00446EEB1AB68DB0706
:102340001AD423784E2BA3F11C01A3F1500235D0EF
:1023500032D8042932D9022B0CD12369002B35D075
:102360001A784E2AA2F11C00A2F150012AD027D8D7
:10237000042827D9204670BDEB681B78002BF9D0C4
:10238000452BF7D021460B78042B33D021D8022BD4
:102390002ED109690029F6D12846FEF7D9FF034658
:1023A000A0B116B92278022A34D022462846032149
:1023B000BDE87040FDF70CBF012ADBD8E468C0E738
:1023C0000129D7D8DB682361002BC9D1002420461E
:1023D00070BD4E2B06D0A3F11C02A3F1500305D80B
:1023E000042A05D8C9680029CDD1D5E7012BF9D930
:1023F0000021D1E7CB685BB11978082901F1FF32E0
:102400000DD80629F4D8012A02D81B69002BF3D174
:102410000121C1E70278292A08BFC660C5E735391E
:1024200018BF0121B8E700BF2DE9F041C16AC368B8
:1024300001F1140282B0C2621A78542A044629D0EB
:10244000472A23D15A1CC2605A78FAB19A1CC2603A
:102450005A78562A00F2E580402A17D9413A152ABF
:1024600014D8DFE802F0D2131313131313130B1352
:1024700013131313131313B4139D1391002501A900
:102480000195FEF70FFB002840F01C81002002B0F0
:10249000BDE8F0815A1CC2605A78002AF6D09A1C16
:1024A000C2605B78413B352BF0D801A252F823F093
:1024B000ED2600088D240008F92600088D24000868
:1024C0008D2400082D2700088D24000839270008D6
:1024D00073270008072800088D2400088D240008B1
:1024E0008D2400088D2400088D2400088D24000808
:1024F0008D2400088D240008FB27000813280008FD
:102500008D2400087F2700088F2700088D240008ED
:102510008D2400088D2400088D2400088D240008D7
:102520008D2400088D2400088D2400088D240008C7
:102530008D2400088D2400089D2700088D240008A4
:102540008D2400088D2400088D240008D32700085E
:102550008D2400088D2400088D2400088D24000897
:102560008D2400088D2400088D2400088D24000887
:102570008D2400088D2400088D2400088D24000877
:102580008D240008472700080021FFF757FD00238E
:1025900002461321204602B0BDE8F041FDF718BE07
:1025A0009A78002A00F09A80DA1CC2609A78DB7868
:1025B0006E2A00F06A81472B02D0542B40F08E80A7
:1025C0002046FFF731FF024600234A21E2E70021BF
:1025D000FFF734FDD4E905129142064680F284806B
:1025E000226901EB810002EB80050023C5E901337C
:1025F00001314323616102F820302046FDF764FE7B
:10260000E8602B4632461621C4E79B78472B60D002
:10261000542B5ED00021FFF787FE024600231721CE
:10262000B8E7722A7FF432AFFDF74EFE01287FF73C
:102630002DAFE3681A78002A3FF428AF5E1CE660ED
:102640001B785F2B7FF422AF0022451E17464FF008
:1026500042083378002B3FF419AF242B40F0E1807F
:102660007378532B00F009815F2B00F00481242B39
:102670007FF40CAF1946D4E90503E668984206F1E9
:10268000020680F2FC80D4F810C000EB800E0CEB48
:102690008E030130C3E90177023D60610CF82E80A2
:1026A000D960E660002A00F0E48041212046FDF771
:1026B0008FFD024600283FF4E9AE002DC9DC00235F
:1026C000402167E7019A002A3FF4E0AE2B465621ED
:1026D00060E72046FFF7A8FE02469FE7002120465C
:1026E000FFF722FE02466FE700258AE700F07AF93D
:1026F0000023024630214DE7FEF704FA0546204646
:10270000FDF7E2FD0028FFF6C1AEE3681A785F2A04
:102710007FF4BCAE0133E3602046FEF7F3F9E16AD3
:102720000531E16202462B460B2133E7FEF7EAF959
:10273000002302460E212DE70021FFF77FFC002336
:102740000246142126E77621FDF7F8FD00283FF424
:102750009DAEE3681B78472B00F0A280542B00F05D
:102760009F8000212046FFF7DFFD02460023102155
:1027700010E7FEF7C7F9002302460C210AE70F31E4
:10278000C162FEF7BFF900230246092102E70021DA
:10279000FFF754FC002302461521FBE60021FDF75C
:1027A000CDFD00283FF472AE00212046FDF7C6FDA6
:1027B00000283FF46BAEE3681B78472B7FD0542B87
:1027C0007DD000212046FFF7AFFD024600231121F6
:1027D000E0E66821FDF7B2FD00283FF457AEE3685C
:1027E0001B78472B61D0542B5FD000212046FFF788
:1027F0009BFD024600230F21CCE6FEF783F9002360
:1028000002460D21C6E6FEF77DF90023024612219D
:10281000C0E60A31C162FEF775F9002302460A21BB
:10282000B8E606F1FF3C002104E0242B06D001317C
:10283000A94203D01CF8013F002BF6D1D4E90503CF
:1028400098421EDAD4F810C000EB800E0CEB8E0319
:102850000130C3E90177606100293FF417AEC3E995
:1028600001770CF82E70C3E90361E6686D1A0E4417
:1028700017E71A4621E72E21FDE62F21FBE6E66049
:1028800004E6E3680B44E36000E6472B12D0542BC8
:1028900010D00021FFF748FD024600234B2179E6C6
:1028A0002046FFF7C1FD024660E72046FFF7BCFD6A
:1028B00002469FE72046FFF7B7FD0246EDE72046B8
:1028C000FFF7B2FD024681E7F8B5C26813784C2BDA
:1028D00032D1531CC36051785F2904464AD05A292B
:1028E00013D15A1CE2605B78472B3CD0542B3AD072
:1028F00000212046FFF718FDE3681A780646452AAE
:102900001AD10133E3603046F8BDFEF7FBF8064606
:1029100090B10378E768272B11D03D786E2D52D007
:102920003D21452D55D03B4603E0E3601D78452D04
:1029300027D00133002DF8D100263046F8BDC368FA
:102940001A7C1AB1E26A5968521AE262244918687C
:1029500006F0E2F83D780028E0D1452D3DD06E2DFF
:1029600031D03D21DFE72046FFF75EFDE3680646F4
:102970001A78C4E7931CC36092785A2AB1D0002613
:10298000BDE7DD1BD4E905239A4224DAD4F810E030
:1029900002EB82000EEB80034FEA800C0020013234
:1029A0008542C3E90100626115DDC3E901000EF84B
:1029B0000C00C3E9037532462046FDF709FCE368C5
:1029C00006461A789BE77B1CE3607D783E211F4614
:1029D000A7E70025D6E70023EDE70137E760ACE77E
:1029E0001849030838B5C3681A784C2A1AD0044627
:1029F00007D8493A012A18D80133C360BDE83840E6
:102A00001AE0582A11D101330122056BC360026319
:102A1000FEF7BEFFE36825631A78452A0AD1013321
:102A2000E36038BDBDE838404EE72046BDE8384099
:102A3000FEF768B8002038BD70B5C368866A1A789A
:102A4000452A82B004461FD00023019301AD09E05E
:102A5000FDF7BEFB286000F1100560B1E3681A784D
:102A6000452A0BD02046FFF7BDFF024600232F2149
:102A70002046002AECD1002002B070BD0198A66269
:102A80000133E36002B070BD5A1C0023C2602F21E5
:102A90001A4602B0BDE87040FDF79ABBF8B5C568AC
:102AA00006460F4600242B78442B0AD0493B0B2BBB
:102AB0000CD8DFE803F03A0B0B0B370B0B0B0B0BAF
:102AC00029236B7803F0DF03542B3DD000222146ED
:102AD0003046FEF78FFD0446002C3BD0F5682B787E
:102AE000452B38D0002FDED0D6E90832934231DAB8
:102AF000F26942F8234001333362D4E754BB3046D5
:102B0000FDF730FE0446E7E701213046FDF708FFF8
:102B10000246F8B10378533B012BD8D9D4B9F568F4
:102B20000446C0E70135F560BDE79CB10135F560AD
:102B30003046FFF781FF034660B12246042130464C
:102B4000FDF746FB0446C7E724B93046FDF7DAFF38
:102B50000446C1E700242046F8BD00BF2DE9F04F30
:102B6000044699B0002A00F08380D0F81871002F35
:102B700040F08180167815465C2E79D8DFE816F093
:102B8000430B480148016302C5085D00BA080A0109
:102B9000C7050608D5076C0639060806390831034B
:102BA0002B03FA02730742071107E006AF06A407DA
:102BB0004008A100A100A1008600860086008600D2
:102BC00086008600860027012701860086007A0B92
:102BD0007E00FF08D809C0007800C00057015701E7
:102BE0008908B309B502FC047800CE01C601B10121
:102BF000690578002D0578007800D700D7002609F0
:102C000051094909C10A060BD50582093202FF01A3
:102C100078008001D50ABA0A5E0A430A8600CF0A04
:102C20008600860062030C010C01DC03AB039604F2
:102C300055047E002404EE03C404D2F80C80D0F8BE
:102C4000203108F10102934241F3D786D0F81031C8
:102C50005B68DB6841465BB1B8F1000F04D101F05D
:102C60001DBF002901F01A871B690139002BF8D11B
:102C70000123C4F8183119B0BDE8F08FEA681121BA
:102C8000204619B0BDE8F04F02F0B8BCD0E94423AB
:102C900008A9CDE908350B920023EA68C0F81411A1
:102CA0000A931121204602F0A9FC0A9B002B01F097
:102CB0003085089BC4F81431002FDCD0C4F8108193
:102CC000D9E7D0F814110B46002902F0C9839A689D
:102CD0003AB95A681278A2F11900022804D896422B
:102CE000CCD01B68002BF2D1D4F810310B93002309
:102CF000CDE9095308AAC4F814210891EA68D0E77D
:102D0000D0E9443208A90020CDE908250A90C4F88A
:102D100014112A690B931121204602F06FFC0A9BC3
:102D2000002B01F09387089BC4F81431A3E7D26805
:102D30001378272B41F09786D3681F7C062F02F269
:102D4000398027B12B691B78002B02F06983D4F8F6
:102D50000011FF2902F062814B1CC4F800312823C6
:102D600063542046112184F8043102F047FCD4F862
:102D70000011FF2902F042814B1CC4F800312923C5
:102D8000635484F804312B783E2B02F06481082FC1
:102D900002F055812A6972E7D268002A01F066863E
:102DA000112102F02BFC2B78542B01F06286EB688A
:102DB000002BEFD02E26D4F80011FF2902F0C88195
:102DC0004B1CC4F80031665484F80461E2E7D26811
:102DD000D0F820911378B9F1000F03D1052B02F040
:102DE00059814F461046232BD4E9441C01F0B98584
:102DF0009E4201F0B685242B01F0D78408ABC4F8BD
:102E000014310023CDF820C00B9109950A9348E7AF
:102E1000D268112102F0F2FBCF492046FDF76AFC8F
:102E20002D692B78482B01F05D822A4627E7D2686E
:102E300012B1112102F0E2FB2B69002B3FF41BAF12
:102E4000D4F80011FD2901F2CF87C4492046FDF7CF
:102E500051FC2A69D4F80061D4F828511121204688
:102E600002F0CCFBD4F82831AB427FF404AFD4F8A5
:102E70000031B3427FF4FFAE023BC4F80031FAE602
:102E8000B74ED0F8001106F10E0B4FF0000A4FF0CC
:102E900001090AE00B464646591CB345C4F8001127
:102EA000E75484F8047101F03683FF29777806F13E
:102EB0000108EFD1D4E9423284F8FFA020469847B8
:102EC000D4F8283127700133D84584F80471C4F848
:102ED0000091C4F8283101F01E8316F8027F012307
:102EE000DAE7D2E903653378322B01F05586342BCB
:102EF00001F0B8863246112103F086FA2A461121E4
:102F0000204619B0BDE8F04F03F07CBCD268112117
:102F1000204619B0BDE8F04F03F076BA914ED0F8D4
:102F2000001106F1090B4FF0000A4FF001090AE009
:102F30000B464646591CB345C4F80011E75484F8C3
:102F4000047101F04B83FF29777806F10108EFD176
:102F5000D4E9423284F8FFA020469847D4F82831BB
:102F600027700133C34584F80471C4F80091C4F894
:102F7000283101F0338316F8027F0123DAE77A4E15
:102F8000D0F8001106F1070B4FF0000801270BE005
:102F90000B465646591CB345C4F8001104F803907B
:102FA00084F8049101F01084FF2996F8019006F14D
:102FB000010AEDD1D4E9423284F8FF8020469847D7
:102FC000D4F8283184F800900133D34584F8049173
:102FD000C4F80071C4F8283102F0438016F8029F4B
:102FE0000123D7E7614ED0F8001106F11C0B4FF01A
:102FF000000A4FF001090AE00B464646591CB3454A
:10300000C4F80011E75484F804713FF437AEFF2987
:10301000777806F10108EFD1D4E9423284F8FFA0B5
:1030200020469847D4F8283127700133D84584F8D2
:103030000471C4F80091C4F828313FF41FAE16F8AB
:10304000027F0123DAE7D2F80C80D0F81491002235
:10305000C0F81421B8F1000F3FF40AAE08ABD0F865
:1030600010110193944610464746C3E90027C3E96F
:1030700002013A784E2A9E46A2F11C0AA2F150089B
:103080000CF1010601F05A8401F25484BAF1040FE4
:1030900041F25484C4F814313B78022BB84601F055
:1030A000D486042B04D1CDE9061806ABC4F8103140
:1030B0002A691121204602F0A1FA98F80030042B69
:1030C00004BF069BC4F81031019B4FF0200803EBAE
:1030D00006159A4655F8086C002E01F00F84103D35
:1030E000AA45F7D1C4F81491C5E5D768204DD7F8A3
:1030F00008B00197D0F8001105F108084FF0000A58
:103100004FF0010907460AE00B462546591CA84521
:10311000C7F80011FE5487F8046101F00183FF290C
:103120006E7805F10104EFD1D7E9423287F8FFA0AC
:1031300038469847D7F828313E700133444587F820
:103140000461C7F80091C7F8283101F0E98215F849
:10315000026F0123DAE700BF384903083449030846
:10316000AB4B0308EB4A03089F4B03087F4B030854
:10317000DF4A0308C54ED0F8001106F11A0B4FF0D4
:10318000000A4FF001090AE00B464646591CB345B8
:10319000C4F80011E75484F804713FF46FADFF29BF
:1031A000777806F10108EFD1D4E9423284F8FFA024
:1031B00020469847D4F8283127700133C34584F856
:1031C0000471C4F80091C4F828313FF457AD16F8E3
:1031D000027F0123DAE7AE49FDF78CFAEA68112194
:1031E0004EE5AC4ED0F8001106F1150B4FF0000A79
:1031F0004FF001090AE00B464646591CB345C4F896
:103200000011E75484F804713FF438ADFF29777852
:1032100006F10108EFD1D4E9423284F8FFA020463C
:103220009847D4F8283127700133C34584F80471D6
:10323000C4F80091C4F828313FF420AD16F8027F9D
:103240000123DAE7D0F80011FF2901F074864A1C47
:103250005B23C4F800214FF0000A6354AB4684F8A6
:103260000431DBF80C201121204602F0C7F9DBF80D
:1032700010B0BBF1000F01F09D81DFF82C82D4F873
:10328000001108F10209012508E0B046591CC145AA
:10329000C4F80011E75484F80471E2D04646FF29CF
:1032A00016F8017B0B46F0D1D4E9423284F8FFA036
:1032B00020469847D4F82831277001334E4584F8CA
:1032C0000471C4F8005108F10208C4F82831C8D0CC
:1032D00037780123DAE7704ED0F8001106F1170BAA
:1032E0004FF0000A4FF001090AE00B464646591C10
:1032F000B345C4F80011E75484F804713FF4BEAC40
:10330000FF29777806F10108EFD1D4E9423284F839
:10331000FFA020469847D4F8283127700133C345D1
:1033200084F80471C4F80091C4F828313FF4A6ACC5
:1033300016F8027F0123DAE71121D26802F05EF964
:10334000D4F80011FF2901F0B8854A1C4023C4F8C5
:103350000021635484F804312A6990E44F4FD26805
:10336000112102F04BF94FF00009D4F8001107F1D8
:10337000030A4FF0010809E02F46591CBA45C4F86A
:103380000011E65484F804613FF475AC3D46FF2912
:1033900015F8016B0B46EFD1D4E9423284F8FF9067
:1033A00020469847D4F8283126700133AA4584F87E
:1033B0000461C4F8008107F10207C4F828313FF422
:1033C0005AAC2E780123D8E7354ED0F8001106F11B
:1033D000080B4FF0000A4FF001090AE00B46464681
:1033E000591CB345C4F80011E75484F8047101F086
:1033F0005B80FF29777806F10108EFD1D4E94232EA
:1034000084F8FFA020469847D4F82831277001336C
:10341000C34584F80471C4F80091C4F8283101F060
:10342000438016F8027F0123DAE71E4DD0F8001121
:1034300005F1080A4FF000094FF001080AE00B46B9
:103440003D46591CAA45C4F80011E65484F80461AD
:103450003FF411ACFF296E7805F10107EFD1D4E9F3
:10346000423284F8FF9020469847D4F828312670DD
:103470000133574584F80461C4F80081C4F8283149
:103480003FF4F9AB15F8026F0123DAE71B4A030892
:10349000084A0308034A0308774903084C4B03080A
:1034A000D34B0308C74B030834490308D0F8001175
:1034B000FF2901F051854A1C3C23C4F800216354C4
:1034C00084F80431EE688EB10025A946B3462F4634
:1034D000002F40F05A875A461121204602F08EF8FC
:1034E000DBF810B00137BBF1000FF1D1D4F80011B7
:1034F000FF2901F042854A1C3E23C4F80021635491
:1035000084F80431FFF7B7BBD268D2E90063002B1F
:1035100000F073873344D0F80011013E03F1FF3807
:103520004FF0000A4FF001090AE00B465E46591CB5
:10353000B045C4F80011E75484F8047100F05D87C9
:10354000FF29777806F1010BEFD1D4E9423284F8F4
:10355000FFA020469847D4F82831C4F800910133E1
:10356000C345277084F80471C4F8283100F04587FA
:1035700016F8027F0123DAE7BC4ED0F8001106F1FD
:10358000090B4FF0000A4FF001090AE00B464646CE
:10359000591CB345C4F80011E75484F804713FF492
:1035A000F9ABFF29777806F10108EFD1D4E942326F
:1035B00084F8FFA020469847D4F8283127700133BB
:1035C000C34584F80471C4F80091C4F828313FF46D
:1035D000E1AB16F8027F0123DAE713691A783B2A78
:1035E0007FF446AB1B691B783C2B7FF441AB2A462A
:1035F000112103F091F900287FF43DAB2A461121F7
:10360000204603F0CDFA00287FF435ABD5E90383DB
:10361000D3E90363D8F80C2095491068D3E9037502
:1036200005F07AFA002841F09787324620461121AA
:1036300003F0E8F842462046112102F0E5FE20465C
:103640003A46112103F0DEF88A492046FDF752F888
:1036500054E413691B78392B7FF40AABD268D36822
:103660001B685978632901F04F852A4611212046AD
:1036700003F052F900287FF4FEAA2A4611212046C1
:1036800003F08EFA00287FF4F6AAEB681A78322A43
:1036900001F01887DB687849186805F03DFA2B6956
:1036A000DA6818B91378032B01F07A8711212046C4
:1036B00003F0A8F8EE687149F3681F68384605F012
:1036C0002BFA002801F0D8866B49384605F024FA19
:1036D000002841F05E872B6911211A69204603F00A
:1036E00091F8EB681A78322A7FF4C5AADB689A68E9
:1036F000012A7FF4C0AA5B681B783E2B7FF4BBAA2B
:103700002921204619B0BDE8F04FFCF76FBFD0F873
:103710000011FF2901F053844A1C7E23C4F80021C4
:10372000635484F80431FFF735BBDFF85C81D0F8CF
:10373000001108F10A0B4FF0000A4FF0010909E0EF
:10374000B046591CC345C4F80011E75484F804710D
:1037500000F0DC874646FF2916F8017B0B46EFD1C7
:10376000D4E9423284F8FFA020469847D4F82831A3
:1037700027700133B34584F80471C4F8009108F14F
:103780000208C4F8283100F0C18737780123D8E750
:103790003B4ED0F8001106F1120B4FF0000A4FF02B
:1037A00001090AE00B464646591CB345C4F800110E
:1037B000E75484F804713FF461AAFF29777806F191
:1037C0000108EFD1D4E9423284F8FFA0204698479F
:1037D000D4F8283127700133C34584F80471C4F844
:1037E0000091C4F828313FF449AA16F8027F01235A
:1037F000DAE7DFF89880D0F8001108F10D0B4FF0F0
:10380000000A4FF0010909E0B046591CC345C4F84D
:103810000011E75484F804713FF430AA4646FF29AA
:1038200016F8017B0B46EFD1D4E9423284F8FFA0B1
:1038300020469847D4F8283127700133B34584F8DF
:103840000471C4F8009108F10208C4F828313FF46B
:1038500015AA37780123D8E70A4ED0F8001106F1EF
:10386000180B4FF0000A4FF001091CE0EB4A030867
:10387000044B0308084B0308FC4A0308004B0308E9
:10388000DB490308A7490308404B0308CC49030858
:103890000B464646591CB345C4F80011E75484F85A
:1038A000047100F0F086FF29777806F10108EFD166
:1038B000D4E9423284F8FFA020469847D4F8283152
:1038C00027700133C34584F80471C4F80091C4F82B
:1038D000283100F0D88616F8027F0123DAE7D04EAF
:1038E000D0F8001106F1150B4FF0000A4FF0010956
:1038F0000AE00B464646591CB345C4F80011E7548C
:1039000084F8047100F08786FF29777806F10108B2
:10391000EFD1D4E9423284F8FFA020469847D4F88A
:10392000283127700133C34584F80471C4F800912D
:10393000C4F8283100F06F8616F8027F0123DAE719
:10394000B84ED0F8001106F1190B4FF0000A4FF0F5
:1039500001090AE00B464646591CB345C4F800115C
:10396000E75484F804713FF489A9FF29777806F1B8
:103970000108EFD1D4E9423284F8FFA020469847ED
:10398000D4F8283127700133C34584F80471C4F892
:103990000091C4F828313FF471A916F8027F012381
:1039A000DAE7A14ED0F8001106F1160B4FF0000A2D
:1039B0004FF001090AE00B464646591CB345C4F8CE
:1039C0000011E75484F804713FF458A9FF2977786F
:1039D00006F10108EFD1D4E9423284F8FFA0204675
:1039E0009847D4F8283127700133C34584F804710F
:1039F000C4F80091C4F828313FF440A916F8027FBA
:103A00000123DAE7894ED0F8001106F1130B4FF0CD
:103A1000000A4FF001090AE00B464646591CB3451F
:103A2000C4F80011E75484F804713FF427A9FF2972
:103A3000777806F10108EFD1D4E9423284F8FFA08B
:103A400020469847D4F8283127700133C34584F8BD
:103A50000471C4F80091C4F828313FF40FA916F896
:103A6000027F0123DAE7724ED0F8001106F10F0B46
:103A70004FF0000A4FF001090AE00B464646591C78
:103A8000B345C4F80011E75484F804713FF4F6A874
:103A9000FF29777806F10108EFD1D4E9423284F8A2
:103AA000FFA020469847D4F8283127700133C3453A
:103AB00084F80471C4F80091C4F828313FF4DEA8FA
:103AC00016F8027F0123DAE75A4ED0F8001106F10A
:103AD000110B4FF0000A4FF001090AE00B46464671
:103AE000591CB345C4F80011E75484F804713FF43D
:103AF000C5A8FF29777806F10108EFD1D4E9423251
:103B000084F8FFA020469847D4F828312770013365
:103B1000C34584F80471C4F80091C4F828313FF417
:103B2000ADA816F8027F0123DAE7434ED0F8001162
:103B300006F1080B4FF0000A4FF001090AE00B46AE
:103B40004646591CB345C4F80011E75484F8047183
:103B50003FF494A8FF29777806F10108EFD1D4E962
:103B6000423284F8FFA020469847D4F828312770C5
:103B70000133C34584F80471C4F80091C4F82831B6
:103B80003FF47CA816F8027F0123DAE7DFF8B08063
:103B9000D0F8001108F10B0B4FF0000A4FF00109AB
:103BA00009E0B046591CC345C4F80011E75484F835
:103BB00004713FF463A84646FF2916F8017B0B46C3
:103BC000EFD1D4E9423284F8FFA020469847D4F8D8
:103BD000283127700133B34584F80471C4F800918B
:103BE00008F10208C4F828313FF448A837780123C7
:103BF000D8E71249FCF77EFDEA681121FFF740B8CB
:103C0000D2E90353002B3FF436A82B44D0F800111F
:103C1000013D5F1E4FF000094FF001081DE000BF9D
:103C20008F4A0308734A03085B4A0308474A03089C
:103C3000374A0308AF4A03089B490308F0490308C1
:103C4000904903080B465546591CAF42C4F8001171
:103C5000E65484F804613FF40EA8FF296E7805F15C
:103C6000010AEFD1D4E9423284F8FF902046984708
:103C7000D4F82831C4F8008101335745267084F800
:103C80000461C4F828313EF4F6AF15F8026F012341
:103C9000DAE7B54ED0F8001106F11E0B4FF0000A1E
:103CA0004FF001090AE00B464646591CB345C4F8DB
:103CB0000011E75484F804713EF4E0AFFF297778EF
:103CC00006F10108EFD1D4E9423284F8FFA0204682
:103CD0009847D4F8283127700133D84584F8047107
:103CE000C4F80091C4F828313EF4C8AF16F8027F3A
:103CF0000123DAE7D568002D40F040869B49204635
:103D000019B0BDE8F04FFCF7F5BC0023D0F81481E2
:103D1000D0F84871C4F848211121C0F81431D26894
:103D200001F06CFC94F804313C2B01F0FE80D4F8D7
:103D30000011FF2901F0E9804B1CC4F800313C233D
:103D4000635484F804312A691121204601F056FC9D
:103D500094F804313E2B01F0D280D4F80011FF29F1
:103D600001F0BD804B1CC4F800313E23635484F83D
:103D70000431C4F81481C4F84871FEF77CBFD268DE
:103D8000D0F814A1CAB108ABC0F8143100230A93CB
:103D90001121D0F810310B93CDE908A501F02EFCCC
:103DA0000A9B089AC4F81421002B7EF464AF2021EA
:103DB0002046FCF71BFCD4F814A153462A461121D7
:103DC000204619B0BDE8F04F01F0DCBF1121D268E8
:103DD00001F014FCD4F80011FF2901F0DE804A1C28
:103DE0002823C4F80021635484F804312A6911217E
:103DF000204601F003FCD4F80011FF2900F03C86B6
:103E00004A1C2923C4F80021635484F80431FEF7C6
:103E100032BFD268112101F0F1FB2A691121FEF7AE
:103E20002FBF534ED0F8001106F10E0B4FF0000AD1
:103E30004FF001090AE00B464646591CB345C4F849
:103E40000011E75484F804713EF418AFFF29777825
:103E500006F10108EFD1D4E9423284F8FFA02046F0
:103E60009847D4F8283127700133C34584F804718A
:103E7000C4F80091C4F828313EF400AF16F8027F70
:103E80000123DAE73B4ED0F8001106F11D0B4FF08D
:103E9000000A4FF001090AE00B464646591CB3459B
:103EA000C4F80011E75484F804713EF4E7AEFF292A
:103EB000777806F10108EFD1D4E9423284F8FFA007
:103EC00020469847D4F8283127700133C34584F839
:103ED0000471C4F80091C4F828313EF4CFAE16F84E
:103EE000027F0123DAE7D2E9032512B1112101F0A3
:103EF00085FBD4F80011FF2900F095874A1C7B232D
:103F0000C4F80021204663542A46112184F8043164
:103F100001F074FBD4F80011FF2900F03C834A1C27
:103F20007D23C4F80021635484F80431FEF7A3BE56
:103F3000D0F814A1CDF820A008AB0193D146C0F869
:103F400014319A46D0F810310B93002309920A934A
:103F5000B9F1000F01F0C7824FF00108DDF804C08D
:103F60004E46C646574622E057490308504B0308C1
:103F70002F4B03085F4B0308B368B3B9B8F1030FC5
:103F80003EF676AE18AB03EB081B96E80F00ABF1DC
:103F9000400A8AE80F004BF8407C0CEB0817C4F885
:103FA000147108F10108C6F808E0366826B1736894
:103FB0001B78193B022BDFD92A691121204601F019
:103FC0001DFB0A9BC4F81491002B7EF454AEB8F18B
:103FD000010F0FD9019B03EB081757F80C2C08F1C0
:103FE000FF381121204601F037FBB8F1010FA7F18E
:103FF0001007F2D1D4F814312A461121204602F0DC
:1040000017F9FEF738BE1121D26801F0F7FAC2495C
:104010002046FCF76FFB11212A69204601F0EEFAD9
:10402000D4F80011FF2900F037854A1C5D23C4F83D
:104030000021635484F80431FEF71DBED0F82081BE
:10404000D568B8F1000F40F06D842946FCF70AFBF3
:10405000002800F06784474604E0C3682BB100697C
:10406000013728B103782F2BF7D0002F3EF403AE91
:1040700046464FF00009A046C8F824612A4611219F
:104080004046013601F0BAFABE423EF4F4ADA34C0C
:10409000D8F80011019504F1020B4546A04609E04D
:1040A000D046591CC345C5F80011EC5485F80441AD
:1040B00000F0A081C246FF291AF8014B0B46EFD150
:1040C000D5E9423285F8FF9028469847D5F828313F
:1040D0002C700133C5F82831D3454FF0010385F822
:1040E000044108F10208C5F8003100F083819AF814
:1040F0000040D6E78A49FCF7FDFAEA681121FEF78D
:10410000BFBDD0F80011157BFF2900F0BC814B1C0E
:10411000C4F80031655484F80451FEF7ACBD112198
:10412000D26801F06BFA7F4972E77F4ED0F8001138
:1041300006F1160B4FF0000A4FF001090AE00B469A
:104140004646591CB345C4F80011E75484F804717D
:104150003EF494ADFF29777806F10108EFD1D4E958
:10416000423284F8FFA020469847D4F828312770BF
:104170000133C34584F80471C4F80091C4F82831B0
:104180003EF47CAD16F8027F0123DAE7D268674976
:1041900008A829F0B7F808A804F01AFD00283EF492
:1041A0006AAD08AED4F8001106EB000A4FF0000922
:1041B0004FF0010809E02E46591CB245C4F8001121
:1041C000E75484F804713EF456AD3546FF2915F8DE
:1041D000017B0B46EFD1D4E9423284F8FF902046B0
:1041E0009847D4F8283127700133554584F8047175
:1041F000C4F8008106F10206C4F828313EF43BAD54
:104200002F780123D8E7D2E90353002B3EF433ADD6
:104210002B44D0F80011013D03F1FF3A4FF00009A3
:104220004FF001080AE00B463D46591CAA45C4F868
:104230000011E65484F804613EF41DADFF296E7848
:1042400005F10107EFD1D4E9423284F8FF9020460E
:104250009847D4F82831C4F800810133BA45267054
:1042600084F80461C4F828313EF405AD15F8026FF6
:104270000123DAE7D268D2E90053002B3EF4FBAC0D
:104280002B44D0F80011013D03F1FF3A4FF0000933
:104290004FF001080AE00B463D46591CAA45C4F8F8
:1042A0000011E65484F804613EF4E5ACFF296E7811
:1042B00005F10107EFD1D4E9423284F8FF9020469E
:1042C0009847D4F82831C4F800810133BA452670E4
:1042D00084F80461C4F828313EF4CDAC15F8026FBF
:1042E0000123DAE712492046FCF704FA2A690F494C
:1042F000013208A829F006F808A804F069FC8246F3
:10430000002800F0738608AED4F80011B2444FF0D4
:1043100000094FF0010818E02C490308344903084C
:10432000C44A0308BC4B0308C74A0308E03E03081D
:104330003C4903083E46591CB245C4F8001104F834
:1043400003B084F804B100F051863746FF2917F80E
:1043500001BB0B46EED1D4E9423284F8FF902046EF
:104360009847D4F8283184F800B00133BA4584F86E
:1043700004B1C4F8008106F10206C4F8283100F047
:10438000358697F800B00123D5E7C74DD4F8001162
:1043900001970126274605F1020A2C4608E044460B
:1043A000591CA245C7F80011FD5487F804511DD0CF
:1043B000A046FF2918F8015B0B46F0D1D7E942323D
:1043C00087F8FF9038469847D7F828313D70013379
:1043D000D04587F80451C7F8006104F10204C7F81A
:1043E000283103D098F800500123D9E73C46019FBB
:1043F000FFF771B8A846019D3EE6B5F91020AB491C
:1044000008A828F07FFF08A804F0E2FB90B308AFEB
:10441000D4F8001107EB000B4FF0000A4FF0010930
:1044200009E03746591CBB45C4F8001104F8038065
:1044300084F804811ED03E46FF2916F8018B0B46F6
:10444000EFD1D4E9423284F8FFA020469847D4F84F
:10445000283184F800800133B34584F80481C4F81E
:10446000009107F10207C4F8283103D096F80080C4
:104470000123D7E7AD7C002D3EF4FDABD4F800114D
:10448000FF297FF444AE0026D4F80831D4F80C217B
:1044900084F8FF6020469847D4F8282101231A4465
:1044A0003146C4F8282133E6814FEA6811212046BD
:1044B00001F0A4F84FF00009D4F8001107F1060A42
:1044C0004FF0010809E02F46591CBA45C4F8001105
:1044D000E65484F804613EF4CEAB3D46FF2915F85E
:1044E000016B0B46EFD1D4E9423284F8FF902046AD
:1044F0009847D4F8283126700133554584F8046173
:10450000C4F8008107F10207C4F828313EF4B3ABC8
:104510002E780123D8E7EA686449013208A828F018
:10452000F1FE08A804F054FB80B308AED4F80011E3
:1045300006EB000A4FF000094FF0010808E02E4694
:10454000591CB245C4F80011E75484F804711FD017
:104550003546FF2915F8017B0B46F0D1D4E94232EC
:1045600084F8FF9020469847D4F82831277001330B
:10457000AA4584F80471C4F8008106F10206C4F863
:10458000283100F0D7822F780123D9E7D4F8001121
:10459000FF297FF4C4AC0025D4E9423284F8FF50EF
:1045A00020469847D4F82831012213442946C4F8FC
:1045B0002831B5E4D4F80011FF295D467FF435AD0C
:1045C000D4E9423284F8FF5020469847D4F8283185
:1045D000012213442946C4F8283127E5D4F848318C
:1045E00033B1D4F81011089108AAC4F81021099326
:1045F000EA681378042B00F0A0821121204600F015
:10460000FDFFD4F84831002B3EF435AB089BC4F8CD
:104610001031FEF730BBDFF89C802A69112120465B
:1046200000F0ECFF4FF0000AD4F8001108F1050B80
:104630004FF0010909E0B046591CC345C4F8001108
:10464000E75484F804713EF419AB4646FF2916F886
:10465000017B0B46EFD1D4E9423284F8FFA020461B
:104660009847D4F8283127700133B34584F8047192
:10467000C4F8009108F10208C4F828313EF4FEAAFB
:1046800037780123D8E7DFF83080EA681121204627
:1046900000F0B4FF4FF0000AD4F8001108F1040B49
:1046A0004FF0010914E000BF34490308E03E03085D
:1046B000E04B0308A84A0308C4490308B046591C44
:1046C000C345C4F80011E75484F804713EF462ABAA
:1046D0004646FF2916F8017B0B46EFD1D4E942325A
:1046E00084F8FFA020469847D4F82831277001337A
:1046F0005E4584F80471C4F8009108F10208C4F81A
:1047000028313EF447AB37780123D8E7EA68FFF752
:104710006EBB2A461121204600F09EFFFEF7C9BA63
:104720003C46019F7D682B78613B192B04D82021E2
:104730002046FBF75BFF7D680BF1FF37EB5D202B1D
:1047400018BF5F46002F3EF496AA013DD4F8001131
:104750002F444FF000094FF001080AE00B46554680
:10476000591CAF42C4F80011E65484F804613EF4C9
:1047700082AAFF296E7805F1010AEFD1D4E942320D
:1047800084F8FF9020469847D4F82831C4F8008177
:104790000133BA45267084F80461C4F828313EF428
:1047A0006AAA15F8026F0123DAE7C268CDF820C0C3
:1047B00008ABC4F8143100230B9109950A93002A21
:1047C0007EF46FAAFEF79ABAD4F81031EE68069319
:1047D0000023D4F820910793C4F8203106ABC4F825
:1047E00010311EB13378572B00F0D48408AA01236E
:1047F0000192FF29C4F8203100F005834B1CC4F856
:10480000003128236354DFF8888384F804311121B0
:104810003246204600F0F2FE069BC4F82091D4F800
:104820000011C4F8103108F1020B4FF0000A4FF0EC
:10483000010908E0B046591CC345C4F80011E7540B
:1048400084F804711CD04646FF2916F8017B0B46FC
:10485000F0D1D4E9423284F8FFA020469847D4F83A
:104860002831277001335E4584F80471C4F8009143
:1048700008F10208C4F8283102D037780123DAE7BA
:10488000019F2A69BF490132384628F03BFD38466E
:1048900004F09EF9D4F8001100283FF479AE07EB3C
:1048A000000A4FF000094FF0010809E02F46591C9B
:1048B000BA45C4F80011E65484F804613FF468AEC8
:1048C0003D46FF2915F8016B0B46EFD1D4E9423282
:1048D00084F8FF9020469847D4F828312670013399
:1048E000AA4584F80461C4F8008107F10207C4F8FE
:1048F000283100F01F812E780123D8E7D4F8003149
:10490000FF2B00F035845A1CC4F80021112104F853
:10491000038055F80C2C84F80481204600F09CFE9E
:10492000FEF7DDBB11212A46204601F06BFF9649B8
:10493000FFF7E5B9B8F1010F3EF6ACABFF68724680
:10494000002F00F02286042E03F1100300F0858171
:10495000B446FEF78ABB2F2ED4E9441C4F467EF4A2
:104960004DAA08ABC268C4F814310023CDF820C0AA
:104970000B91099005460A93FEF793B98349FBF71B
:10498000B9FE80492A4608A828F0BCFC08A804F013
:104990001FF978B308AED4F8001106EB000A4FF007
:1049A00000094FF0010808E02E46591CB245C4F832
:1049B0000011E75484F804711CD03546FF2915F81E
:1049C000017B0B46F0D1D4E9423284F8FF902046B7
:1049D0009847D4F8283127700133AA4584F8047128
:1049E000C4F8008106F10206C4F8283102D02F78FD
:1049F0000123DAE77D21FEF784BE002B00F07B81E6
:104A0000DFF89081D0F8001108F1050B4FF0000A93
:104A10004FF0010909E0B046591CC345C4F8001124
:104A2000E75484F8047100F087814646FF2916F8A0
:104A3000017B0B46EFD1D4E9423284F8FFA0204637
:104A40009847D4F8283127700133B34584F80471AE
:104A5000C4F8009108F10208C4F8283100F06C8114
:104A600037780123D8E70027FEF771B9542E7EF47A
:104A700091A93A26FEF79FB90025D4E9423284F87D
:104A8000FF5020469847D4F8283101221344294684
:104A9000C4F82831FFF7B5B9002591E51A785B2AEB
:104AA00004D1DB68002B3EF4E3A81A78583A022AB6
:104AB00040F2E6800123C4F818313249424608A882
:104AC00028F020FC08A804F083F800283EF4D3A8BE
:104AD00008AED4F8001106EB000A4FF000094FF0C1
:104AE000010809E02E46591CB245C4F80011E754EC
:104AF00084F804713EF4BFA83546FF2915F8017B00
:104B00000B46EFD1D4E9423284F8FF902046984713
:104B1000D4F8283127700133AA4584F80471C4F809
:104B2000008106F10206C4F828313EF4A4A82F78CB
:104B30000123D8E70121FFF7F2B9D26811212046FD
:104B400000F05CFDD4F8483113B1089BC4F8103173
:104B500094F804313C2B00F03D843C212046FBF7C7
:104B600045FDEB6811211A69204600F047FD94F8D5
:104B700004313E2B00F028843E212046FBF736FD11
:104B8000FEF779B8E03E03084C4B0308584B030886
:104B9000A84B030850490308F3681F683B78B3F13A
:104BA000610203D17A78643A08BFBA78297812B9D9
:104BB000032900F02684392900F07C84732B1FD14F
:104BC0007A785A2A40F0CC8397F80280B8F1000F27
:104BD00040F0C68329462046FBF744FD30B908E083
:104BE000C36833B1006908F1010810B103782F2BB5
:104BF000F6D04146204619B0BDE8F04FFBF7E0BDC6
:104C000032461121204601F0FFFB3B78672B06D18D
:104C10007A78732A03D1BA78002A3EF406A9732B56
:104C20007EF46CA97B78742B7EF468A9BB78002B8A
:104C30007EF464A928212046FBF7D8FC11212A46DE
:104C4000204600F0DBFC2921FEF75BBD2A4611213E
:104C5000204600F001FDFEF766B80123C4E945E3F4
:104C6000FEF709B82821FBF7C1FC2046F2681121A4
:104C700000F0C4FC29212046FBF7B8FCFEF73EB942
:104C8000D74B03EB8203D3F82458284603F0A0FF48
:104C900000283FF412AF013DD4F800112F184FF057
:104CA000000A4FF001090AE00B465D46591CAF426D
:104CB000C4F80011E65484F804613FF4FEAEFF2905
:104CC0006E7805F1010BEFD1D4E9423284F8FFA0F0
:104CD00020469847D4F82831C4F8009101335F4545
:104CE000267084F80461C4F828313FF4E6AE15F864
:104CF000026F0123DAE72946FBF79AFC02460028F7
:104D00003DF4B6AF03782F2B09D1D4F82411002934
:104D100005DBFBF7F5FB024600283DF4A9AFD4F80C
:104D200010512B68C4F810311121204600F066FCA8
:104D3000C4F81051FDF79FBFEA68AA49013208A8DC
:104D400028F0E0FA08A803F043FF824600283DF46B
:104D500092AF08AED4F80011B2444FF000094FF002
:104D6000010809E02E46591CB245C4F80011E75469
:104D700084F804713DF47FAF3546FF2915F8017BB7
:104D80000B46EFD1D4E9423284F8FF902046984791
:104D9000D4F8283127700133AA4584F80471C4F887
:104DA000008106F10206C4F828313DF464AF2F7883
:104DB0000123D8E7072F7DF4CAAF2B6919780029A2
:104DC0007DF4C5AF196901297DF4C1AF3D2E7DF495
:104DD000BEAFDB681B78302B00F00084312B7DF4F4
:104DE000B6AF8149FEF78BBF002666542046D4E952
:104DF00042329847D4F82831C4F800610133C4F82E
:104E00002831FEF722B84FF00008D4E9423284F886
:104E1000FF8020469847D4F828310133C4F8283160
:104E200041460123EBE40026D4F80831D4F80C21E4
:104E300084F8FF6020469847D4F8283101221344B3
:104E40003146C4F82831FFF75AB8D8F8108098F8DE
:104E50000030482B00F0B082019B03EB0C1C8A460B
:104E6000674698F800304E2BA3F11C01A3F15002C5
:104E700007D004D8042904D95146FEF712B9012AF3
:104E8000FAD8042EBE463DF4F3AE97E80F0007F1C2
:104E9000100C4FF0000B8CE80F003F61CEE9018B46
:104EA000D8F80C80CEF80CA001366746C4F814C1BF
:104EB000B8F1000FD5D1FDF7DBBE0026D4F80831DC
:104EC000D4F80C2184F8FF6020469847D4F82831A4
:104ED000012213443146C4F82831FEF737BA0025C1
:104EE000D4E9423284F8FF5020469847D4F828315C
:104EF0000133C4F8283129460123FEF734BF2021AD
:104F00002046FBF773FBFEF728BF0026D4E94232A8
:104F100084F8FF6020469847D4F828310133C4F85C
:104F2000283131460123FEF708BF20212046FBF738
:104F30005DFBFEF7FCBE0026D0F80831D0F80C214E
:104F400080F8FF609847D4F8283101221344314695
:104F5000C4F82831FEF77CB90026D0F80831D0F823
:104F60000C2180F8FF609847D4F8283101221344BF
:104F70003146C4F82831FEF79FBA0025D4E9423201
:104F800084F8FF5020469847D4F828310122134472
:104F90002946C4F82831FEF7AFBA0026D4F8083104
:104FA000D4F80C2184F8FF6020469847D4F82831C3
:104FB000012213443146C4F82831FEF711BF002600
:104FC000D0F80831D0F80C2180F8FF609847D4F869
:104FD0002831012213443146C4F82831FEF79DBB25
:104FE00078320308E03E0308284B0308CC492046EA
:104FF000FBF780FBED682A46FDF741BE0026D4E9A9
:10500000423284F8FF6020469847D4F828310133B3
:10501000C4F8283131460123FDF7AFBE0026D4E99C
:10502000423284F8FF6020469847D4F82831EA6875
:105030000133C4F8283131460123FDF78EBE5B21D0
:105040002046FBF7D3FA11212A69204600F0D6FA50
:105050005D21FEF756BB2D212046FBF7C7FAFDF771
:1050600096BED4F81031EE68069306ABD4F82091C2
:10507000CDF81C80C4F81031C4F820811EB13378FB
:10508000572B00F0878008ABC4F8207101210193F1
:10509000FFF7B4BBD0F83471002F40F33082D0F862
:1050A00030C14B46604604E0BB4200F1080000F00E
:1050B00026825CF833108A4203F10103F4D1002800
:1050C00000F01D82D4F82C71002F00F089813B463E
:1050D00003E05B68002B00F083811968914203D0E4
:1050E000A942F6D19F42F4D0114620460192FBF727
:1050F0009FFA019A00283DF4BBAD03782F2B00F0F6
:10510000CB814F46FDF76FBE1B78A3F172010129D9
:1051100003D9633B012B3EF6A8AA1121204601F0DA
:1051200073F93C212046FBF761FA2B691121DA68FB
:10513000204600F063FA7B492046FBF7DBFA2B6937
:1051400011211A69204600F059FA2921FEF7D9BA2F
:105150000027D4E9423284F8FF7020469847D4F8FB
:1051600028310133C4F8283139460123FDF729BE1F
:10517000D4F80C21D4F8087184F8FF601946204651
:10518000B847D4F828210132C4F828213346012237
:10519000FFF7BABB3C2120460796FBF727FAF768D2
:1051A00008AB0193002F72D0CDE903694FF0000BDB
:1051B0000595D4F820315A1CC4F82021002B40F06A
:1051C000BB803A461121204600F018FAD4F800318D
:1051D000FF2B00F0B680591C2022C4F80011E254C5
:1051E00084F804213B78D4F8202102915B2B04BF82
:1051F000FF683B78583B022B02F1FF3853D901235B
:10520000C4F81831019D48494246284628F07AF8EA
:10521000284603F0DDFCA0B3019BD4F8001103EB9A
:10522000000A26464FF0010954469A4609E0AA466C
:10523000591C5445C6F8001106F8038086F804810D
:105240001ED05546FF2915F8018B0B46EFD1D6E944
:10525000423286F8FFB030469847D6F8283186F8B3
:1052600000800133A54286F80481C6F800910AF156
:10527000020AC6F8283103D095F800800123D7E749
:1052800034463F69002F94D1DDE90369059D3E2135
:105290002046FBF7ABF9D4F820313669D4F8001179
:1052A0000133FFF7A6BA214A02EB8303D3F824584F
:1052B000284603F08DFC02990028A3D0013D05EBA0
:1052C000000A26464FF00109CDF8088054460AE04E
:1052D0000B465546591CAC42C6F8001106F803802F
:1052E00086F8048124D0FF2995F8018005F1010A90
:1052F000EED1D6E9423286F8FFB030469847D6F86C
:105300002831C6F800910133A24586F8008086F85E
:105310000481C6F828310BD015F8028F0123D9E794
:105320004C490308F84A0308E03E030878320308B2
:10533000DDF80880344665E7AA492046FBF7DAF92C
:105340003FE7194684F8FFB0D4E942322046984737
:10535000D4F8282101210A440023C4F828213BE77E
:10536000732B7FF44DAC7B78502B7FF449ACBB782A
:10537000002B7FF445AC1E4603E001362D69002D5D
:105380004BD02B782F2B48D1EB68002B45D01A78C7
:105390004C2AF2D1D9682046FBF764F9024648B19D
:1053A000002204E0C16829B10069013210B101781E
:1053B0002F29F7D01644E1E7D8F80C80B8F1000F98
:1053C0007FF44AADFDF754BC20212046FBF70EF9CF
:1053D000FFF7D2BB20212046FBF708F9FFF7BDBB42
:1053E0004368D4F81081C4F8103111462046019268
:1053F000FBF71EF9002800F0E580019A4FF0010943
:105400007BE6EA68117801297FF4D8AB296909782D
:10541000292908BF1546FFF7D1BB3146FFF7EABB84
:105420003E2E00F0D3802A6911212046023F00F071
:10543000E5F8042F3DF61FACDFE807F00F0C090676
:1054400003006949FEF75BBC6849FEF758BC684930
:10545000FEF755BC6C21FEF754B97521FEF751B922
:1054600008ABC0F81431D0F810310891CDE909210A
:105470000B93D268FDF715BC20465B21FBF7B6F80D
:105480002B6920461A69112100F0B8F85D212046E9
:10549000FBF7ACF8FEF725B9D4F824110029FFF684
:1054A0005AAAFBF72DF8002800F0888003784F46B1
:1054B000FDF799BCEA681121204601F0A3F93246B4
:1054C000FDF725BDDA68916801297EF4E3A85268EA
:1054D00012783E2A7EF4DEA828212046FBF786F8C3
:1054E000EB68FEF7D7B81269112100F087F80A9B24
:1054F000C4F81491002B3EF47DADFDF7BCBBD4F88D
:105500003831BB427DF7B4ABD4F83011D4F810C1B8
:1055100001EBC703781CC4F83401043341F8372089
:10552000BCF1000F57D0D4E95070964610E0D4F883
:105530003C11DCF8042001EBC7010137C4F84071CD
:105540004A601960DCF800C00B46BCF1000F41D086
:10555000B842ECDCFDF78CBB26492046FBF7CAF8C5
:10556000F36843B111212046324601F04BF9202166
:105570002046FBF73BF83A461121204600F03EF862
:10558000002D7DF4BBACFDF776BBC4F81431FDF7FC
:105590006FBB32461121204600F036FFFEF79BB864
:1055A0001369D2681B78292B1CBF0123C4F818315A
:1055B0001121204601F026F9FEF77CB8B9F1000F61
:1055C0003DF456ABC4F81081FDF752BB2D21FBF71B
:1055D0000DF828E772460021196085E50649FEF7B7
:1055E0008EBB00BF344903081C4B0308184B03084B
:1055F000144B03080C4B0308204B030830B5054639
:1056000083B01AB35368012B14461FDCD0F81C1169
:10561000B1F5806F1ADC013353600131D0F82C31C1
:10562000C0F81C11C0F82CD11121CDE90023FDF7E1
:1056300095FA6268D5F81C310199C5F82C11013A28
:10564000013B6260C5F81C3103B030BD0123C5F8D1
:10565000183103B030BD00BF2DE9F84F1378033B7C
:10566000154604464E2B50D8DFE813F046014F0094
:105670004F004F004F004F004F004F004F004F00B2
:105680004F004F004F004F004F004F004F004F00A2
:105690004F004F004F004F0054008500B6005400EB
:1056A0008500B6001A0127013401F7024B015901A8
:1056B0008901B8014F004F004F004F00E9014F0032
:1056C00036024F004F004F004F004F004F004F0079
:1056D0004F004F004F004F004F004F004F004F0052
:1056E0004F004F004F004F004F004F004F004F0042
:1056F0004F004F004F004F004F004F004F004F0032
:105700004F0068024F009902E7002A461121BDE8C8
:10571000F84F73E7D44DD0F8001105F1090A4FF0A6
:1057200000094FF001080AE00B463D46591CAA4506
:10573000C4F80011E65484F8046100F0EE80FF29FB
:105740006E7805F10107EFD1D4E9423284F8FF9079
:1057500020469847D4F8283126700133BA4584F89A
:105760000461C4F80081C4F8283100F0D68015F82F
:10577000026F0123DAE7BD4DD0F8001105F1090AE7
:105780004FF000094FF001080AE00B463D46591C56
:10579000AA45C4F80011E65484F8046100F0BD8005
:1057A000FF296E7805F10107EFD1D4E9423284F880
:1057B000FF9020469847D4F8283126700133BA4527
:1057C00084F80461C4F80081C4F8283100F0A58091
:1057D00015F8026F0123DAE7A54FD0F8001107F1A1
:1057E000060A4FF000094FF0010809E02F46591C46
:1057F000BA45C4F80011E65484F8046100F08D80C5
:105800003D46FF2915F8016B0B46EFD1D4E9423232
:1058100084F8FF9020469847D4F828312670013349
:10582000AA4584F80461C4F8008107F10207C4F8AE
:10583000283172D02E780123D9E7DFF84882D0F8DA
:10584000001108F1060B4FF0000A4FF0010909E0C2
:10585000B046591CC345C4F80011E75484F80471DC
:1058600000F0CD814646FF2916F8017B0B46EFD1AB
:10587000D4E9423284F8FFA020469847D4F8283172
:10588000277001335E4584F80471C4F8009108F173
:105890000208C4F8283100F0398237780123D8E7AC
:1058A000D0F80031FF2B00F0F3812022591CC0F802
:1058B0000011C25480F8042125E0D0F80031FF2BFC
:1058C00000F0D781591C2022C4F80011E25484F85A
:1058D000042126E0D0F80011FF2900F0E9814A1CDC
:1058E0002023C4F80021635484F804312A69204637
:1058F0001121BDE8F84F81E6EA681121BDE8F84FB3
:105900007CE6D0F80011FF2900F0F1814A1C262323
:10591000C4F80021635484F80431BDE8F88FD0F84E
:105920000011544F4FF0000907F1020A4FF001082F
:1059300008E02F46591CBA45C4F80011E65484F813
:105940000461EAD03D46FF2915F8016B0B46F0D102
:10595000D4E9423284F8FF9020469847D4F82831A1
:1059600026700133AA4584F80461C4F8008107F168
:105970000207C4F82831D0D02E780123DAE73E4D53
:10598000D0F8001105F1090A4FF000094FF00108A5
:1059900009E00B463D46591CAA45C4F80011E654DF
:1059A00084F80461B9D0FF296E7805F10107F0D1C0
:1059B000D4E9423284F8FF9020469847D4F8283141
:1059C00026700133574584F80461C4F80081C4F897
:1059D0002831A2D015F8026F0123DCE7274FD0F859
:1059E000001107F10B0A4FF000094FF0010808E021
:1059F0002F46591CBA45C4F80011E65484F80461D6
:105A00008BD03D46FF2915F8016B0B46F0D1D4E948
:105A1000423284F8FF9020469847D4F82831267007
:105A20000133AA4584F80461C4F8008107F1020734
:105A3000C4F828313FF471AF2E780123D9E790F8EC
:105A40000431282B40F0FD800D4FEA6811212046DB
:105A5000FFF7D4FD4FF00009D4F8001107F1030A55
:105A60004FF001081AE000BFE74B0308F34B0308AF
:105A7000004C0308304C0308334C0308404C030827
:105A80004C4C0308284C03082F46591CBA45C4F84F
:105A90000011E65484F804613FF43FAF3D46FF290E
:105AA00015F8016B0B46EFD1D4E9423284F8FF9030
:105AB00020469847D4F8283126700133AA4584F847
:105AC0000461C4F8008107F10207C4F828313FF4EB
:105AD00024AF2E780123D8E7DFF8A482D0F8001194
